{
  "contractName": "MyNFT",
  "abi": [
    {
      "inputs": [],
      "stateMutability": "nonpayable",
      "type": "constructor"
    },
    {
      "anonymous": false,
      "inputs": [
        {
          "indexed": true,
          "internalType": "address",
          "name": "owner",
          "type": "address"
        },
        {
          "indexed": true,
          "internalType": "address",
          "name": "approved",
          "type": "address"
        },
        {
          "indexed": true,
          "internalType": "uint256",
          "name": "tokenId",
          "type": "uint256"
        }
      ],
      "name": "Approval",
      "type": "event"
    },
    {
      "anonymous": false,
      "inputs": [
        {
          "indexed": true,
          "internalType": "address",
          "name": "owner",
          "type": "address"
        },
        {
          "indexed": true,
          "internalType": "address",
          "name": "operator",
          "type": "address"
        },
        {
          "indexed": false,
          "internalType": "bool",
          "name": "approved",
          "type": "bool"
        }
      ],
      "name": "ApprovalForAll",
      "type": "event"
    },
    {
      "anonymous": false,
      "inputs": [
        {
          "indexed": true,
          "internalType": "address",
          "name": "previousOwner",
          "type": "address"
        },
        {
          "indexed": true,
          "internalType": "address",
          "name": "newOwner",
          "type": "address"
        }
      ],
      "name": "OwnershipTransferred",
      "type": "event"
    },
    {
      "anonymous": false,
      "inputs": [
        {
          "indexed": true,
          "internalType": "address",
          "name": "from",
          "type": "address"
        },
        {
          "indexed": true,
          "internalType": "address",
          "name": "to",
          "type": "address"
        },
        {
          "indexed": true,
          "internalType": "uint256",
          "name": "tokenId",
          "type": "uint256"
        }
      ],
      "name": "Transfer",
      "type": "event"
    },
    {
      "inputs": [
        {
          "internalType": "address",
          "name": "to",
          "type": "address"
        },
        {
          "internalType": "uint256",
          "name": "tokenId",
          "type": "uint256"
        }
      ],
      "name": "approve",
      "outputs": [],
      "stateMutability": "nonpayable",
      "type": "function"
    },
    {
      "inputs": [
        {
          "internalType": "address",
          "name": "owner",
          "type": "address"
        }
      ],
      "name": "balanceOf",
      "outputs": [
        {
          "internalType": "uint256",
          "name": "",
          "type": "uint256"
        }
      ],
      "stateMutability": "view",
      "type": "function",
      "constant": true
    },
    {
      "inputs": [
        {
          "internalType": "uint256",
          "name": "tokenId",
          "type": "uint256"
        }
      ],
      "name": "getApproved",
      "outputs": [
        {
          "internalType": "address",
          "name": "",
          "type": "address"
        }
      ],
      "stateMutability": "view",
      "type": "function",
      "constant": true
    },
    {
      "inputs": [
        {
          "internalType": "address",
          "name": "owner",
          "type": "address"
        },
        {
          "internalType": "address",
          "name": "operator",
          "type": "address"
        }
      ],
      "name": "isApprovedForAll",
      "outputs": [
        {
          "internalType": "bool",
          "name": "",
          "type": "bool"
        }
      ],
      "stateMutability": "view",
      "type": "function",
      "constant": true
    },
    {
      "inputs": [
        {
          "internalType": "uint256",
          "name": "",
          "type": "uint256"
        }
      ],
      "name": "minted",
      "outputs": [
        {
          "internalType": "address",
          "name": "",
          "type": "address"
        }
      ],
      "stateMutability": "view",
      "type": "function",
      "constant": true
    },
    {
      "inputs": [],
      "name": "name",
      "outputs": [
        {
          "internalType": "string",
          "name": "",
          "type": "string"
        }
      ],
      "stateMutability": "view",
      "type": "function",
      "constant": true
    },
    {
      "inputs": [],
      "name": "owner",
      "outputs": [
        {
          "internalType": "address",
          "name": "",
          "type": "address"
        }
      ],
      "stateMutability": "view",
      "type": "function",
      "constant": true
    },
    {
      "inputs": [
        {
          "internalType": "uint256",
          "name": "tokenId",
          "type": "uint256"
        }
      ],
      "name": "ownerOf",
      "outputs": [
        {
          "internalType": "address",
          "name": "",
          "type": "address"
        }
      ],
      "stateMutability": "view",
      "type": "function",
      "constant": true
    },
    {
      "inputs": [
        {
          "internalType": "uint256",
          "name": "",
          "type": "uint256"
        }
      ],
      "name": "owners",
      "outputs": [
        {
          "internalType": "address",
          "name": "",
          "type": "address"
        }
      ],
      "stateMutability": "view",
      "type": "function",
      "constant": true
    },
    {
      "inputs": [],
      "name": "renounceOwnership",
      "outputs": [],
      "stateMutability": "nonpayable",
      "type": "function"
    },
    {
      "inputs": [
        {
          "internalType": "address",
          "name": "from",
          "type": "address"
        },
        {
          "internalType": "address",
          "name": "to",
          "type": "address"
        },
        {
          "internalType": "uint256",
          "name": "tokenId",
          "type": "uint256"
        }
      ],
      "name": "safeTransferFrom",
      "outputs": [],
      "stateMutability": "nonpayable",
      "type": "function"
    },
    {
      "inputs": [
        {
          "internalType": "address",
          "name": "from",
          "type": "address"
        },
        {
          "internalType": "address",
          "name": "to",
          "type": "address"
        },
        {
          "internalType": "uint256",
          "name": "tokenId",
          "type": "uint256"
        },
        {
          "internalType": "bytes",
          "name": "_data",
          "type": "bytes"
        }
      ],
      "name": "safeTransferFrom",
      "outputs": [],
      "stateMutability": "nonpayable",
      "type": "function"
    },
    {
      "inputs": [
        {
          "internalType": "address",
          "name": "operator",
          "type": "address"
        },
        {
          "internalType": "bool",
          "name": "approved",
          "type": "bool"
        }
      ],
      "name": "setApprovalForAll",
      "outputs": [],
      "stateMutability": "nonpayable",
      "type": "function"
    },
    {
      "inputs": [
        {
          "internalType": "bytes4",
          "name": "interfaceId",
          "type": "bytes4"
        }
      ],
      "name": "supportsInterface",
      "outputs": [
        {
          "internalType": "bool",
          "name": "",
          "type": "bool"
        }
      ],
      "stateMutability": "view",
      "type": "function",
      "constant": true
    },
    {
      "inputs": [],
      "name": "symbol",
      "outputs": [
        {
          "internalType": "string",
          "name": "",
          "type": "string"
        }
      ],
      "stateMutability": "view",
      "type": "function",
      "constant": true
    },
    {
      "inputs": [
        {
          "internalType": "uint256",
          "name": "tokenId",
          "type": "uint256"
        }
      ],
      "name": "tokenURI",
      "outputs": [
        {
          "internalType": "string",
          "name": "",
          "type": "string"
        }
      ],
      "stateMutability": "view",
      "type": "function",
      "constant": true
    },
    {
      "inputs": [
        {
          "internalType": "address",
          "name": "from",
          "type": "address"
        },
        {
          "internalType": "address",
          "name": "to",
          "type": "address"
        },
        {
          "internalType": "uint256",
          "name": "tokenId",
          "type": "uint256"
        }
      ],
      "name": "transferFrom",
      "outputs": [],
      "stateMutability": "nonpayable",
      "type": "function"
    },
    {
      "inputs": [
        {
          "internalType": "address",
          "name": "newOwner",
          "type": "address"
        }
      ],
      "name": "transferOwnership",
      "outputs": [],
      "stateMutability": "nonpayable",
      "type": "function"
    },
    {
      "inputs": [
        {
          "internalType": "uint256",
          "name": "tokenId",
          "type": "uint256"
        }
      ],
      "name": "mintNFT",
      "outputs": [
        {
          "internalType": "uint256",
          "name": "",
          "type": "uint256"
        }
      ],
      "stateMutability": "payable",
      "type": "function",
      "payable": true
    },
    {
      "inputs": [
        {
          "internalType": "uint256",
          "name": "tokenId",
          "type": "uint256"
        }
      ],
      "name": "transferNFT",
      "outputs": [
        {
          "internalType": "uint256",
          "name": "",
          "type": "uint256"
        }
      ],
      "stateMutability": "payable",
      "type": "function",
      "payable": true
    },
    {
      "inputs": [],
      "name": "getOwners",
      "outputs": [
        {
          "internalType": "address[7]",
          "name": "",
          "type": "address[7]"
        }
      ],
      "stateMutability": "view",
      "type": "function",
      "constant": true
    },
    {
      "inputs": [],
      "name": "getMinted",
      "outputs": [
        {
          "internalType": "address[7]",
          "name": "",
          "type": "address[7]"
        }
      ],
      "stateMutability": "view",
      "type": "function",
      "constant": true
    }
  ],
  "bytecode": "0x60806040523480156200001157600080fd5b506040518060400160405280600881526020017f4d794172744e46540000000000000000000000000000000000000000000000008152506040518060400160405280600381526020017f4e46540000000000000000000000000000000000000000000000000000000000815250816000908051906020019062000096929190620001a6565b508060019080519060200190620000af929190620001a6565b505050620000d2620000c6620000d860201b60201c565b620000e060201b60201c565b620002bb565b600033905090565b6000600660009054906101000a900473ffffffffffffffffffffffffffffffffffffffff16905081600660006101000a81548173ffffffffffffffffffffffffffffffffffffffff021916908373ffffffffffffffffffffffffffffffffffffffff1602179055508173ffffffffffffffffffffffffffffffffffffffff168173ffffffffffffffffffffffffffffffffffffffff167f8be0079c531659141344cd1fd0a4f28419497f9722a3daafe3b4186f6b6457e060405160405180910390a35050565b828054620001b49062000256565b90600052602060002090601f016020900481019282620001d8576000855562000224565b82601f10620001f357805160ff191683800117855562000224565b8280016001018555821562000224579182015b828111156200022357825182559160200191906001019062000206565b5b50905062000233919062000237565b5090565b5b808211156200025257600081600090555060010162000238565b5090565b600060028204905060018216806200026f57607f821691505b602082108114156200028657620002856200028c565b5b50919050565b7f4e487b7100000000000000000000000000000000000000000000000000000000600052602260045260246000fd5b612f2b80620002cb6000396000f3fe6080604052600436106101355760003560e01c80637dc0bf3f116100ab578063a22cb4651161006f578063a22cb46514610446578063ac72200d1461046f578063b88d4fde1461049a578063c87b56dd146104c3578063e985e9c514610500578063f2fde38b1461053d57610135565b80637dc0bf3f146103585780638da5cb5b1461039557806392642744146103c057806395d89b41146103f0578063a0e67e2b1461041b57610135565b806323b872dd116100fd57806323b872dd14610245578063249e10c51461026e57806342842e0e1461029e5780636352211e146102c757806370a0823114610304578063715018a61461034157610135565b806301ffc9a71461013a578063025e7c271461017757806306fdde03146101b4578063081812fc146101df578063095ea7b31461021c575b600080fd5b34801561014657600080fd5b50610161600480360381019061015c919061204f565b610566565b60405161016e9190612886565b60405180910390f35b34801561018357600080fd5b5061019e600480360381019061019991906120a1565b610648565b6040516101ab9190612804565b60405180910390f35b3480156101c057600080fd5b506101c961067e565b6040516101d691906128a1565b60405180910390f35b3480156101eb57600080fd5b50610206600480360381019061020191906120a1565b610710565b6040516102139190612804565b60405180910390f35b34801561022857600080fd5b50610243600480360381019061023e9190612013565b610795565b005b34801561025157600080fd5b5061026c60048036038101906102679190611f0d565b6108ad565b005b610288600480360381019061028391906120a1565b61090d565b6040516102959190612ac3565b60405180910390f35b3480156102aa57600080fd5b506102c560048036038101906102c09190611f0d565b6109be565b005b3480156102d357600080fd5b506102ee60048036038101906102e991906120a1565b6109de565b6040516102fb9190612804565b60405180910390f35b34801561031057600080fd5b5061032b60048036038101906103269190611ea8565b610a90565b6040516103389190612ac3565b60405180910390f35b34801561034d57600080fd5b50610356610b48565b005b34801561036457600080fd5b5061037f600480360381019061037a91906120a1565b610bd0565b60405161038c9190612804565b60405180910390f35b3480156103a157600080fd5b506103aa610c06565b6040516103b79190612804565b60405180910390f35b6103da60048036038101906103d591906120a1565b610c30565b6040516103e79190612ac3565b60405180910390f35b3480156103fc57600080fd5b50610405610cd8565b60405161041291906128a1565b60405180910390f35b34801561042757600080fd5b50610430610d6a565b60405161043d919061286b565b60405180910390f35b34801561045257600080fd5b5061046d60048036038101906104689190611fd7565b610dea565b005b34801561047b57600080fd5b50610484610f6b565b604051610491919061286b565b60405180910390f35b3480156104a657600080fd5b506104c160048036038101906104bc9190611f5c565b610fec565b005b3480156104cf57600080fd5b506104ea60048036038101906104e591906120a1565b61104e565b6040516104f791906128a1565b60405180910390f35b34801561050c57600080fd5b5061052760048036038101906105229190611ed1565b6110f5565b6040516105349190612886565b60405180910390f35b34801561054957600080fd5b50610564600480360381019061055f9190611ea8565b611189565b005b60007f80ac58cd000000000000000000000000000000000000000000000000000000007bffffffffffffffffffffffffffffffffffffffffffffffffffffffff1916827bffffffffffffffffffffffffffffffffffffffffffffffffffffffff1916148061063157507f5b5e139f000000000000000000000000000000000000000000000000000000007bffffffffffffffffffffffffffffffffffffffffffffffffffffffff1916827bffffffffffffffffffffffffffffffffffffffffffffffffffffffff1916145b80610641575061064082611281565b5b9050919050565b6007816007811061065857600080fd5b016000915054906101000a900473ffffffffffffffffffffffffffffffffffffffff1681565b60606000805461068d90612d20565b80601f01602080910402602001604051908101604052809291908181526020018280546106b990612d20565b80156107065780601f106106db57610100808354040283529160200191610706565b820191906000526020600020905b8154815290600101906020018083116106e957829003601f168201915b5050505050905090565b600061071b826112eb565b61075a576040517f08c379a000000000000000000000000000000000000000000000000000000000815260040161075190612a03565b60405180910390fd5b6004600083815260200190815260200160002060009054906101000a900473ffffffffffffffffffffffffffffffffffffffff169050919050565b60006107a0826109de565b90508073ffffffffffffffffffffffffffffffffffffffff168373ffffffffffffffffffffffffffffffffffffffff161415610811576040517f08c379a000000000000000000000000000000000000000000000000000000000815260040161080890612a83565b60405180910390fd5b8073ffffffffffffffffffffffffffffffffffffffff16610830611357565b73ffffffffffffffffffffffffffffffffffffffff16148061085f575061085e81610859611357565b6110f5565b5b61089e576040517f08c379a000000000000000000000000000000000000000000000000000000000815260040161089590612983565b60405180910390fd5b6108a8838361135f565b505050565b6108be6108b8611357565b82611418565b6108fd576040517f08c379a00000000000000000000000000000000000000000000000000000000081526004016108f490612aa3565b60405180910390fd5b6109088383836114f6565b505050565b6000808210158015610920575060068211155b61092957600080fd5b61093c610935836109de565b33846114f6565b3360078360078110610977577f4e487b7100000000000000000000000000000000000000000000000000000000600052603260045260246000fd5b0160006101000a81548173ffffffffffffffffffffffffffffffffffffffff021916908373ffffffffffffffffffffffffffffffffffffffff160217905550819050919050565b6109d983838360405180602001604052806000815250610fec565b505050565b6000806002600084815260200190815260200160002060009054906101000a900473ffffffffffffffffffffffffffffffffffffffff169050600073ffffffffffffffffffffffffffffffffffffffff168173ffffffffffffffffffffffffffffffffffffffff161415610a87576040517f08c379a0000000000000000000000000000000000000000000000000000000008152600401610a7e906129c3565b60405180910390fd5b80915050919050565b60008073ffffffffffffffffffffffffffffffffffffffff168273ffffffffffffffffffffffffffffffffffffffff161415610b01576040517f08c379a0000000000000000000000000000000000000000000000000000000008152600401610af8906129a3565b60405180910390fd5b600360008373ffffffffffffffffffffffffffffffffffffffff1673ffffffffffffffffffffffffffffffffffffffff168152602001908152602001600020549050919050565b610b50611357565b73ffffffffffffffffffffffffffffffffffffffff16610b6e610c06565b73ffffffffffffffffffffffffffffffffffffffff1614610bc4576040517f08c379a0000000000000000000000000000000000000000000000000000000008152600401610bbb90612a23565b60405180910390fd5b610bce6000611752565b565b600e8160078110610be057600080fd5b016000915054906101000a900473ffffffffffffffffffffffffffffffffffffffff1681565b6000600660009054906101000a900473ffffffffffffffffffffffffffffffffffffffff16905090565b6000808210158015610c43575060068211155b610c4c57600080fd5b610c563083611818565b33600e8360078110610c91577f4e487b7100000000000000000000000000000000000000000000000000000000600052603260045260246000fd5b0160006101000a81548173ffffffffffffffffffffffffffffffffffffffff021916908373ffffffffffffffffffffffffffffffffffffffff160217905550819050919050565b606060018054610ce790612d20565b80601f0160208091040260200160405190810160405280929190818152602001828054610d1390612d20565b8015610d605780601f10610d3557610100808354040283529160200191610d60565b820191906000526020600020905b815481529060010190602001808311610d4357829003601f168201915b5050505050905090565b610d72611db5565b60078080602002604051908101604052809291908260078015610de0576020028201915b8160009054906101000a900473ffffffffffffffffffffffffffffffffffffffff1673ffffffffffffffffffffffffffffffffffffffff1681526020019060010190808311610d96575b5050505050905090565b610df2611357565b73ffffffffffffffffffffffffffffffffffffffff168273ffffffffffffffffffffffffffffffffffffffff161415610e60576040517f08c379a0000000000000000000000000000000000000000000000000000000008152600401610e5790612943565b60405180910390fd5b8060056000610e6d611357565b73ffffffffffffffffffffffffffffffffffffffff1673ffffffffffffffffffffffffffffffffffffffff16815260200190815260200160002060008473ffffffffffffffffffffffffffffffffffffffff1673ffffffffffffffffffffffffffffffffffffffff16815260200190815260200160002060006101000a81548160ff0219169083151502179055508173ffffffffffffffffffffffffffffffffffffffff16610f1a611357565b73ffffffffffffffffffffffffffffffffffffffff167f17307eab39ab6107e8899845ad3d59bd9653f200f220920489ca2b5937696c3183604051610f5f9190612886565b60405180910390a35050565b610f73611db5565b600e600780602002604051908101604052809291908260078015610fe2576020028201915b8160009054906101000a900473ffffffffffffffffffffffffffffffffffffffff1673ffffffffffffffffffffffffffffffffffffffff1681526020019060010190808311610f98575b5050505050905090565b610ffd610ff7611357565b83611418565b61103c576040517f08c379a000000000000000000000000000000000000000000000000000000000815260040161103390612aa3565b60405180910390fd5b611048848484846119e6565b50505050565b6060611059826112eb565b611098576040517f08c379a000000000000000000000000000000000000000000000000000000000815260040161108f90612a63565b60405180910390fd5b60006110a2611a42565b905060008151116110c257604051806020016040528060008152506110ed565b806110cc84611a59565b6040516020016110dd9291906127e0565b6040516020818303038152906040525b915050919050565b6000600560008473ffffffffffffffffffffffffffffffffffffffff1673ffffffffffffffffffffffffffffffffffffffff16815260200190815260200160002060008373ffffffffffffffffffffffffffffffffffffffff1673ffffffffffffffffffffffffffffffffffffffff16815260200190815260200160002060009054906101000a900460ff16905092915050565b611191611357565b73ffffffffffffffffffffffffffffffffffffffff166111af610c06565b73ffffffffffffffffffffffffffffffffffffffff1614611205576040517f08c379a00000000000000000000000000000000000000000000000000000000081526004016111fc90612a23565b60405180910390fd5b600073ffffffffffffffffffffffffffffffffffffffff168173ffffffffffffffffffffffffffffffffffffffff161415611275576040517f08c379a000000000000000000000000000000000000000000000000000000000815260040161126c906128e3565b60405180910390fd5b61127e81611752565b50565b60007f01ffc9a7000000000000000000000000000000000000000000000000000000007bffffffffffffffffffffffffffffffffffffffffffffffffffffffff1916827bffffffffffffffffffffffffffffffffffffffffffffffffffffffff1916149050919050565b60008073ffffffffffffffffffffffffffffffffffffffff166002600084815260200190815260200160002060009054906101000a900473ffffffffffffffffffffffffffffffffffffffff1673ffffffffffffffffffffffffffffffffffffffff1614159050919050565b600033905090565b816004600083815260200190815260200160002060006101000a81548173ffffffffffffffffffffffffffffffffffffffff021916908373ffffffffffffffffffffffffffffffffffffffff160217905550808273ffffffffffffffffffffffffffffffffffffffff166113d2836109de565b73ffffffffffffffffffffffffffffffffffffffff167f8c5be1e5ebec7d5bd14f71427d1e84f3dd0314c0f7b2291e5b200ac8c7c3b92560405160405180910390a45050565b6000611423826112eb565b611462576040517f08c379a000000000000000000000000000000000000000000000000000000000815260040161145990612963565b60405180910390fd5b600061146d836109de565b90508073ffffffffffffffffffffffffffffffffffffffff168473ffffffffffffffffffffffffffffffffffffffff1614806114dc57508373ffffffffffffffffffffffffffffffffffffffff166114c484610710565b73ffffffffffffffffffffffffffffffffffffffff16145b806114ed57506114ec81856110f5565b5b91505092915050565b8273ffffffffffffffffffffffffffffffffffffffff16611516826109de565b73ffffffffffffffffffffffffffffffffffffffff161461156c576040517f08c379a000000000000000000000000000000000000000000000000000000000815260040161156390612a43565b60405180910390fd5b600073ffffffffffffffffffffffffffffffffffffffff168273ffffffffffffffffffffffffffffffffffffffff1614156115dc576040517f08c379a00000000000000000000000000000000000000000000000000000000081526004016115d390612923565b60405180910390fd5b6115e7838383611c06565b6115f260008261135f565b6001600360008573ffffffffffffffffffffffffffffffffffffffff1673ffffffffffffffffffffffffffffffffffffffff16815260200190815260200160002060008282546116429190612c36565b925050819055506001600360008473ffffffffffffffffffffffffffffffffffffffff1673ffffffffffffffffffffffffffffffffffffffff16815260200190815260200160002060008282546116999190612baf565b92505081905550816002600083815260200190815260200160002060006101000a81548173ffffffffffffffffffffffffffffffffffffffff021916908373ffffffffffffffffffffffffffffffffffffffff160217905550808273ffffffffffffffffffffffffffffffffffffffff168473ffffffffffffffffffffffffffffffffffffffff167fddf252ad1be2c89b69c2b068fc378daa952ba7f163c4a11628f55a4df523b3ef60405160405180910390a4505050565b6000600660009054906101000a900473ffffffffffffffffffffffffffffffffffffffff16905081600660006101000a81548173ffffffffffffffffffffffffffffffffffffffff021916908373ffffffffffffffffffffffffffffffffffffffff1602179055508173ffffffffffffffffffffffffffffffffffffffff168173ffffffffffffffffffffffffffffffffffffffff167f8be0079c531659141344cd1fd0a4f28419497f9722a3daafe3b4186f6b6457e060405160405180910390a35050565b600073ffffffffffffffffffffffffffffffffffffffff168273ffffffffffffffffffffffffffffffffffffffff161415611888576040517f08c379a000000000000000000000000000000000000000000000000000000000815260040161187f906129e3565b60405180910390fd5b611891816112eb565b156118d1576040517f08c379a00000000000000000000000000000000000000000000000000000000081526004016118c890612903565b60405180910390fd5b6118dd60008383611c06565b6001600360008473ffffffffffffffffffffffffffffffffffffffff1673ffffffffffffffffffffffffffffffffffffffff168152602001908152602001600020600082825461192d9190612baf565b92505081905550816002600083815260200190815260200160002060006101000a81548173ffffffffffffffffffffffffffffffffffffffff021916908373ffffffffffffffffffffffffffffffffffffffff160217905550808273ffffffffffffffffffffffffffffffffffffffff16600073ffffffffffffffffffffffffffffffffffffffff167fddf252ad1be2c89b69c2b068fc378daa952ba7f163c4a11628f55a4df523b3ef60405160405180910390a45050565b6119f18484846114f6565b6119fd84848484611c0b565b611a3c576040517f08c379a0000000000000000000000000000000000000000000000000000000008152600401611a33906128c3565b60405180910390fd5b50505050565b606060405180602001604052806000815250905090565b60606000821415611aa1576040518060400160405280600181526020017f30000000000000000000000000000000000000000000000000000000000000008152509050611c01565b600082905060005b60008214611ad3578080611abc90612d52565b915050600a82611acc9190612c05565b9150611aa9565b60008167ffffffffffffffff811115611b15577f4e487b7100000000000000000000000000000000000000000000000000000000600052604160045260246000fd5b6040519080825280601f01601f191660200182016040528015611b475781602001600182028036833780820191505090505b5090505b60008514611bfa57600182611b609190612c36565b9150600a85611b6f9190612d9b565b6030611b7b9190612baf565b60f81b818381518110611bb7577f4e487b7100000000000000000000000000000000000000000000000000000000600052603260045260246000fd5b60200101907effffffffffffffffffffffffffffffffffffffffffffffffffffffffffffff1916908160001a905350600a85611bf39190612c05565b9450611b4b565b8093505050505b919050565b505050565b6000611c2c8473ffffffffffffffffffffffffffffffffffffffff16611da2565b15611d95578373ffffffffffffffffffffffffffffffffffffffff1663150b7a02611c55611357565b8786866040518563ffffffff1660e01b8152600401611c77949392919061281f565b602060405180830381600087803b158015611c9157600080fd5b505af1925050508015611cc257506040513d601f19601f82011682018060405250810190611cbf9190612078565b60015b611d45573d8060008114611cf2576040519150601f19603f3d011682016040523d82523d6000602084013e611cf7565b606091505b50600081511415611d3d576040517f08c379a0000000000000000000000000000000000000000000000000000000008152600401611d34906128c3565b60405180910390fd5b805181602001fd5b63150b7a0260e01b7bffffffffffffffffffffffffffffffffffffffffffffffffffffffff1916817bffffffffffffffffffffffffffffffffffffffffffffffffffffffff191614915050611d9a565b600190505b949350505050565b600080823b905060008111915050919050565b6040518060e00160405280600790602082028036833780820191505090505090565b6000611dea611de584612b0f565b612ade565b905082815260208101848484011115611e0257600080fd5b611e0d848285612cde565b509392505050565b600081359050611e2481612e99565b92915050565b600081359050611e3981612eb0565b92915050565b600081359050611e4e81612ec7565b92915050565b600081519050611e6381612ec7565b92915050565b600082601f830112611e7a57600080fd5b8135611e8a848260208601611dd7565b91505092915050565b600081359050611ea281612ede565b92915050565b600060208284031215611eba57600080fd5b6000611ec884828501611e15565b91505092915050565b60008060408385031215611ee457600080fd5b6000611ef285828601611e15565b9250506020611f0385828601611e15565b9150509250929050565b600080600060608486031215611f2257600080fd5b6000611f3086828701611e15565b9350506020611f4186828701611e15565b9250506040611f5286828701611e93565b9150509250925092565b60008060008060808587031215611f7257600080fd5b6000611f8087828801611e15565b9450506020611f9187828801611e15565b9350506040611fa287828801611e93565b925050606085013567ffffffffffffffff811115611fbf57600080fd5b611fcb87828801611e69565b91505092959194509250565b60008060408385031215611fea57600080fd5b6000611ff885828601611e15565b925050602061200985828601611e2a565b9150509250929050565b6000806040838503121561202657600080fd5b600061203485828601611e15565b925050602061204585828601611e93565b9150509250929050565b60006020828403121561206157600080fd5b600061206f84828501611e3f565b91505092915050565b60006020828403121561208a57600080fd5b600061209884828501611e54565b91505092915050565b6000602082840312156120b357600080fd5b60006120c184828501611e93565b91505092915050565b60006120d683836120e2565b60208301905092915050565b6120eb81612c6a565b82525050565b6120fa81612c6a565b82525050565b61210981612b49565b6121138184612b77565b925061211e82612b3f565b8060005b8381101561214f57815161213687826120ca565b965061214183612b6a565b925050600181019050612122565b505050505050565b61216081612c7c565b82525050565b600061217182612b54565b61217b8185612b82565b935061218b818560208601612ced565b61219481612e88565b840191505092915050565b60006121aa82612b5f565b6121b48185612b93565b93506121c4818560208601612ced565b6121cd81612e88565b840191505092915050565b60006121e382612b5f565b6121ed8185612ba4565b93506121fd818560208601612ced565b80840191505092915050565b6000612216603283612b93565b91507f4552433732313a207472616e7366657220746f206e6f6e20455243373231526560008301527f63656976657220696d706c656d656e74657200000000000000000000000000006020830152604082019050919050565b600061227c602683612b93565b91507f4f776e61626c653a206e6577206f776e657220697320746865207a65726f206160008301527f64647265737300000000000000000000000000000000000000000000000000006020830152604082019050919050565b60006122e2601c83612b93565b91507f4552433732313a20746f6b656e20616c7265616479206d696e746564000000006000830152602082019050919050565b6000612322602483612b93565b91507f4552433732313a207472616e7366657220746f20746865207a65726f2061646460008301527f72657373000000000000000000000000000000000000000000000000000000006020830152604082019050919050565b6000612388601983612b93565b91507f4552433732313a20617070726f766520746f2063616c6c6572000000000000006000830152602082019050919050565b60006123c8602c83612b93565b91507f4552433732313a206f70657261746f7220717565727920666f72206e6f6e657860008301527f697374656e7420746f6b656e00000000000000000000000000000000000000006020830152604082019050919050565b600061242e603883612b93565b91507f4552433732313a20617070726f76652063616c6c6572206973206e6f74206f7760008301527f6e6572206e6f7220617070726f76656420666f7220616c6c00000000000000006020830152604082019050919050565b6000612494602a83612b93565b91507f4552433732313a2062616c616e636520717565727920666f7220746865207a6560008301527f726f2061646472657373000000000000000000000000000000000000000000006020830152604082019050919050565b60006124fa602983612b93565b91507f4552433732313a206f776e657220717565727920666f72206e6f6e657869737460008301527f656e7420746f6b656e00000000000000000000000000000000000000000000006020830152604082019050919050565b6000612560602083612b93565b91507f4552433732313a206d696e7420746f20746865207a65726f20616464726573736000830152602082019050919050565b60006125a0602c83612b93565b91507f4552433732313a20617070726f76656420717565727920666f72206e6f6e657860008301527f697374656e7420746f6b656e00000000000000000000000000000000000000006020830152604082019050919050565b6000612606602083612b93565b91507f4f776e61626c653a2063616c6c6572206973206e6f7420746865206f776e65726000830152602082019050919050565b6000612646602983612b93565b91507f4552433732313a207472616e73666572206f6620746f6b656e2074686174206960008301527f73206e6f74206f776e00000000000000000000000000000000000000000000006020830152604082019050919050565b60006126ac602f83612b93565b91507f4552433732314d657461646174613a2055524920717565727920666f72206e6f60008301527f6e6578697374656e7420746f6b656e00000000000000000000000000000000006020830152604082019050919050565b6000612712602183612b93565b91507f4552433732313a20617070726f76616c20746f2063757272656e74206f776e6560008301527f72000000000000000000000000000000000000000000000000000000000000006020830152604082019050919050565b6000612778603183612b93565b91507f4552433732313a207472616e736665722063616c6c6572206973206e6f74206f60008301527f776e6572206e6f7220617070726f7665640000000000000000000000000000006020830152604082019050919050565b6127da81612cd4565b82525050565b60006127ec82856121d8565b91506127f882846121d8565b91508190509392505050565b600060208201905061281960008301846120f1565b92915050565b600060808201905061283460008301876120f1565b61284160208301866120f1565b61284e60408301856127d1565b81810360608301526128608184612166565b905095945050505050565b600060e0820190506128806000830184612100565b92915050565b600060208201905061289b6000830184612157565b92915050565b600060208201905081810360008301526128bb818461219f565b905092915050565b600060208201905081810360008301526128dc81612209565b9050919050565b600060208201905081810360008301526128fc8161226f565b9050919050565b6000602082019050818103600083015261291c816122d5565b9050919050565b6000602082019050818103600083015261293c81612315565b9050919050565b6000602082019050818103600083015261295c8161237b565b9050919050565b6000602082019050818103600083015261297c816123bb565b9050919050565b6000602082019050818103600083015261299c81612421565b9050919050565b600060208201905081810360008301526129bc81612487565b9050919050565b600060208201905081810360008301526129dc816124ed565b9050919050565b600060208201905081810360008301526129fc81612553565b9050919050565b60006020820190508181036000830152612a1c81612593565b9050919050565b60006020820190508181036000830152612a3c816125f9565b9050919050565b60006020820190508181036000830152612a5c81612639565b9050919050565b60006020820190508181036000830152612a7c8161269f565b9050919050565b60006020820190508181036000830152612a9c81612705565b9050919050565b60006020820190508181036000830152612abc8161276b565b9050919050565b6000602082019050612ad860008301846127d1565b92915050565b6000604051905081810181811067ffffffffffffffff82111715612b0557612b04612e59565b5b8060405250919050565b600067ffffffffffffffff821115612b2a57612b29612e59565b5b601f19601f8301169050602081019050919050565b6000819050919050565b600060079050919050565b600081519050919050565b600081519050919050565b6000602082019050919050565b600081905092915050565b600082825260208201905092915050565b600082825260208201905092915050565b600081905092915050565b6000612bba82612cd4565b9150612bc583612cd4565b9250827fffffffffffffffffffffffffffffffffffffffffffffffffffffffffffffffff03821115612bfa57612bf9612dcc565b5b828201905092915050565b6000612c1082612cd4565b9150612c1b83612cd4565b925082612c2b57612c2a612dfb565b5b828204905092915050565b6000612c4182612cd4565b9150612c4c83612cd4565b925082821015612c5f57612c5e612dcc565b5b828203905092915050565b6000612c7582612cb4565b9050919050565b60008115159050919050565b60007fffffffff0000000000000000000000000000000000000000000000000000000082169050919050565b600073ffffffffffffffffffffffffffffffffffffffff82169050919050565b6000819050919050565b82818337600083830152505050565b60005b83811015612d0b578082015181840152602081019050612cf0565b83811115612d1a576000848401525b50505050565b60006002820490506001821680612d3857607f821691505b60208210811415612d4c57612d4b612e2a565b5b50919050565b6000612d5d82612cd4565b91507fffffffffffffffffffffffffffffffffffffffffffffffffffffffffffffffff821415612d9057612d8f612dcc565b5b600182019050919050565b6000612da682612cd4565b9150612db183612cd4565b925082612dc157612dc0612dfb565b5b828206905092915050565b7f4e487b7100000000000000000000000000000000000000000000000000000000600052601160045260246000fd5b7f4e487b7100000000000000000000000000000000000000000000000000000000600052601260045260246000fd5b7f4e487b7100000000000000000000000000000000000000000000000000000000600052602260045260246000fd5b7f4e487b7100000000000000000000000000000000000000000000000000000000600052604160045260246000fd5b6000601f19601f8301169050919050565b612ea281612c6a565b8114612ead57600080fd5b50565b612eb981612c7c565b8114612ec457600080fd5b50565b612ed081612c88565b8114612edb57600080fd5b50565b612ee781612cd4565b8114612ef257600080fd5b5056fea2646970667358221220d56d034c2b4446841fce918de14bde3a97ac8ac4f276455e34461fe59d95c1a664736f6c63430008000033",
  "immutableReferences": {},
  "source": "// SPDX-License-Identifier: MIT \r\n\r\npragma solidity ^0.8.0;\r\n\r\nimport \"@openzeppelin/contracts/token/ERC721/ERC721.sol\";\r\nimport \"@openzeppelin/contracts/access/Ownable.sol\";\r\n\r\n\r\ncontract MyNFT is ERC721, Ownable {\r\n\r\n    address[7] public owners;\r\n    address[7] public minted;\r\n\r\n    constructor() ERC721(\"MyArtNFT\", \"NFT\") {}\r\n\r\n    function mintNFT(uint tokenId) payable public returns (uint) {\r\n        require(tokenId >= 0 && tokenId <= 6);\r\n\r\n        _mint(address(this), tokenId);\r\n        minted[tokenId] = msg.sender;\r\n\r\n        return tokenId;\r\n    }\r\n\r\n    function transferNFT(uint tokenId) payable public returns (uint) {\r\n        require(tokenId >= 0 && tokenId <= 6);\r\n\r\n        _transfer(ownerOf(tokenId), msg.sender, tokenId);\r\n        owners[tokenId] = msg.sender;\r\n\r\n        return tokenId;\r\n    } \r\n\r\n    function getOwners() public view returns(address[7] memory) {\r\n        return owners;   \r\n    }\r\n\r\n    function getMinted() public view returns (address[7] memory) {\r\n       return minted;\r\n    }\r\n}\r\n\r\n",
  "sourcePath": "C:\\Users\\Isaac\\Downloads\\Tienda NFT Proyecto Curso\\nft-store-template-main\\contracts\\MyNFT.sol",
  "compiler": {
    "name": "solc",
    "version": "0.8.0+commit.c7dfd78e.Emscripten.clang"
  },
  "schemaVersion": "3.4.8",
  "updatedAt": "2022-07-29T02:21:59.060Z",
  "networkType": "ethereum",
  "devdoc": {
    "kind": "dev",
    "methods": {
      "approve(address,uint256)": {
        "details": "See {IERC721-approve}."
      },
      "balanceOf(address)": {
        "details": "See {IERC721-balanceOf}."
      },
      "getApproved(uint256)": {
        "details": "See {IERC721-getApproved}."
      },
      "isApprovedForAll(address,address)": {
        "details": "See {IERC721-isApprovedForAll}."
      },
      "name()": {
        "details": "See {IERC721Metadata-name}."
      },
      "owner()": {
        "details": "Returns the address of the current owner."
      },
      "ownerOf(uint256)": {
        "details": "See {IERC721-ownerOf}."
      },
      "renounceOwnership()": {
        "details": "Leaves the contract without owner. It will not be possible to call `onlyOwner` functions anymore. Can only be called by the current owner. NOTE: Renouncing ownership will leave the contract without an owner, thereby removing any functionality that is only available to the owner."
      },
      "safeTransferFrom(address,address,uint256)": {
        "details": "See {IERC721-safeTransferFrom}."
      },
      "safeTransferFrom(address,address,uint256,bytes)": {
        "details": "See {IERC721-safeTransferFrom}."
      },
      "setApprovalForAll(address,bool)": {
        "details": "See {IERC721-setApprovalForAll}."
      },
      "supportsInterface(bytes4)": {
        "details": "See {IERC165-supportsInterface}."
      },
      "symbol()": {
        "details": "See {IERC721Metadata-symbol}."
      },
      "tokenURI(uint256)": {
        "details": "See {IERC721Metadata-tokenURI}."
      },
      "transferFrom(address,address,uint256)": {
        "details": "See {IERC721-transferFrom}."
      },
      "transferOwnership(address)": {
        "details": "Transfers ownership of the contract to a new account (`newOwner`). Can only be called by the current owner."
      }
    },
    "version": 1
  },
  "userdoc": {
    "kind": "user",
    "methods": {},
    "version": 1
  }
}